:020000040800F2
:100000000050002021020008270200082B020008EF
:100010009D020008A1020008E9020008000000009B
:100020000000000000000000000000003103000894
:10003000350300080000000039030008310F0008F4
:100040004D0300084D0300084D0300084D03000850
:100050004D0300084D0300084D0300084D03000840
:100060004D0300084D0300084D0300084D03000830
:100070004D0300084D0300084D0300084D03000820
:100080004D0300084D0300084D0300084D03000810
:100090004D0300084D0300084D0300084D03000800
:1000A0004D0300084D0300084D0300084D030008F0
:1000B0004D0300084D0300084D0300084D030008E0
:1000C0004D0300084D0300084D0300084D030008D0
:1000D0004D0300084D0300084D0300084D030008C0
:1000E0004D0300084D0300084D0300080000000008
:1000F0000000000000000000000000000000000000
:1001000000000000000000005FF808F100B583B0B7
:1001100000F0AAF9304B314A1360314A1360314B79
:10012000314A32498B4204D21168196004330432D7
:10013000F7E72A4B1A682E4B9A4200D0FEE7284B6D
:100140001A682C4B9A42F9D1234B2B4A13602B4A45
:1001500013602B4B02E000221A600433294A9342B9
:10016000F9D3254B1B6813B9244B1B6803B1FEE779
:1001700000F086F9694601A800F022F9224C234BD1
:10018000E41AA4100025AC4214DC214C214BE41AE3
:10019000A4100025AC4213DC0099019801F0AAF9E3
:1001A00005461D4C1D4BE41AA410002C0EDC2846FD
:1001B00000F0E2F8154B53F8253098470135E2E797
:1001C000144B53F8253098470135E3E7013C134BB6
:1001D00053F824309847E8E7BABADECA0000002096
:1001E0008C00002000000020C423000890000020A4
:1001F000785634123254769890000020B8080020C7
:1002000090000020BC080020780300087803000854
:1002100078030008780300087803000878030008D2
:1002200008B5FFF773FF00BEFEE71EF0040F0CBF1A
:10023000EFF30880EFF309807146414A10472DE93A
:10024000F04182B004468846124B5E6B9F6B9D6AFC
:100250001B6B13F0020F03D00E4BDB6A002B0CDB81
:100260000D4800F0B5F8CDF800803B4632462946EF
:10027000204600F009F900BEFEE74BF6AB6100F046
:100280007DF90028ECD0034B4FF00042DA6202B057
:10029000BDE8F08100ED00E00021000800BEFEE7AF
:1002A0001EF0040F0CBFEFF30880EFF309807146D6
:1002B000244A10472DE9F04182B004468846084B95
:1002C0005E6B9F6B9D6A074800F082F8CDF8008056
:1002D0003B4632462946204600F0D6F800BEFEE7EF
:1002E00000ED00E0102100081EF0040F0CBFEFF33A
:1002F0000880EFF309807146134A10472DE9F04159
:1003000082B004468846084B5E6B9F6B9D6A074827
:1003100000F05EF8CDF800803B4632462946204684
:1003200000F0B2F800BEFEE700ED00E01C2100087E
:1003300000BEFEE700BEFEE700BEFEE7704700001D
:100340003F020008B5020008FD02000800BEFEE7FB
:10035000C42300080000002090000020C4230008EF
:10036000000000000000000090000020BC080020F9
:08037000000000000000000085
:10037800FEE7000008B503460C4A12685AB10B4A5A
:100388001068033323F003030344094A934206D851
:10039800064A136008BD054A06491160EFE701F0F7
:1003A8007DF90C2303604FF0FF30F3E79400002041
:1003B800004C0020BC08002001230360014B0B60A7
:1003C800704700BF040000200FB400B583B004AB31
:1003D80053F8042B01938021064801F001FA002804
:1003E80003DD0146034800F037F803B05DF804EB7D
:1003F80004B070479C0000202DE9F04385B0044606
:100408000F4643560BB10E461EE0042528462146EA
:10041800ABBE0446384605B0BDE8F08314F9011BAD
:1004280004AA1A4402F8101C0133AB42F6D304AAFA
:100438001344002203F8102C4FF00408E946404604
:100448004946ABBE8046761B002EE3D03546102EBB
:1004580028BF10250023E8E708B5FFF7CDFF08BD42
:1004680008B500F0FDF8024A024B9A6008BD00BFCB
:100478000000000800ED00E008B500F019F908BD1B
:10048800F8B504460D4617461E462748FFF79CFF59
:1004980021682648FFF798FF61682548FFF794FF11
:1004A800A1682448FFF790FFE1682348FFF78CFF15
:1004B80021692248FFF788FF61692148FFF784FF17
:1004C800A1692048FFF780FFE1691F48FFF77CFF1B
:1004D8001E48FFF779FF29461D48FFF775FF1D4C99
:1004E800E16A1D48FFF770FF216B1C48FFF76CFF9E
:1004F800E16B1B48FFF768FF15F0800F0AD115F470
:10050800004F0CD11748FFF75FFF06991648FFF711
:100518005BFFF8BD39461548FFF756FFEFE7314650
:100528001348FFF751FFEDE7E41F0008F41F000828
:1005380004200008142000082420000834200008A3
:100548004420000854200008642000087420000893
:100558008020000800ED00E090200008A02000089E
:10056800B0200008E0200008E8200008C0200008AB
:10057800D020000883691A888A4201D00020704779
:100588000268033A012A03D80233836101207047C5
:100598000020704782B00023019300932C4A13680F
:1005A80043F4803313602A4B1B6803F40033009331
:1005B800019B01330193009B1BB9019BB3F5A06F0D
:1005C800F1D1234B1B6813F4003F06D0012300939D
:1005D800009B012B04D002B0704700230093F7E77B
:1005E8001C4B1A6842F010021A601A6822F00302C3
:1005F8001A601A6842F002021A60A3F580535A681A
:100608005A605A685A605A6842F480625A605A6856
:1006180022F47C125A605A6842F4E8125A601A6846
:1006280042F080721A600A4B1B6813F0007FFAD000
:10063800074B5A6822F003025A605A6842F00202D5
:100648005A60034B5B6803F00C03082BF9D1C2E72F
:10065800001002400020024008B5FFF79BFF08BDCC
:1006680008B5104B1A6842F001021A6059680E4A20
:100678000A405A601A6822F0847222F480321A60A2
:100688001A6822F480221A605A6822F4FE025A601C
:100698004FF41F029A60FFF7DFFF044B4FF0006230
:1006A8009A6008BD001002400000FFF800ED00E06D
:1006B8001F4B5B6803F00C03042B15D0082B17D0D5
:1006C8001BB11C4B1C4A1A6002E01A4B1A4A1A60EA
:1006D800174B5B68C3F30313184AD35CDAB21549A6
:1006E8000B68D3400B607047124B134A1A60EFE750
:1006F8000F4A53685268C3F38343023312F4803FAE
:100708000AD00B4A526812F4003F0BD00C4A02FB85
:1007180003F3084A1360DBE7094A02FB03F3054ABF
:100728001360D5E7044A02FB03F3024A1360CFE7DC
:10073800001002401C00002000127A000C0000206B
:1007480000093D00012800D970470F29FCD810B4D2
:1007580007292DD8012811D018B102281BD010BCA8
:1007680070478900FF2303FA01F0284C236823EA25
:10077800000302FA01F119432160F0E78900FF2321
:1007880003FA01F0224C236823EA000302FA01F17C
:1007980019432160E3E78900FF2303FA01F01D4CA8
:1007A800236823EA000302FA01F119432160D6E71E
:1007B8000839C9B201281CD070B10228CFD18900EC
:1007C800FF2303FA01F0134C636823EA000302FADB
:1007D80001F119436160C2E78900FF2303FA01F0C0
:1007E8000A4C636823EA000302FA01F119436160C5
:1007F800B5E78900FF2303FA01F0054C636823EA93
:10080800000302FA01F119436160A8E700080140FA
:10081800000C01400010014070B56421344800F01C
:1008280063FC344800F0AAFB012501E00135EDB274
:100838002C466E1E2E4B9B5D4B2B11D000F0B0FB4F
:100848002B4B18550028F9D0642D09D09B5D522BED
:10085800ECD15228EAD1274800F090FB0125E7E7C0
:100868006421234800F040FC234800F087FB012561
:1008780001E00135EDB22C466E1E1D4B9B5D4B2BE6
:1008880011D000F08DFB1A4B18550028F9D0642DB3
:1008980009D09B5D522BECD15228EAD1164800F0C2
:1008A8006DFB0125E7E76421114800F01DFC1348A2
:1008B80000F064FB012501E00135EDB22C466E1E07
:1008C8000B4B9B5D4B2B11D000F06AFB084B185566
:1008D8000028F9D0642D09D09B5D522BECD1522809
:1008E800EAD1064800F04AFB0125E7E770BD00BFE2
:1008F800FC010020942100089C210008A421000884
:1009080070B506460D4664211D4800F0EDFB1D4CF0
:100918004621204600F0E8FB1B49204600F0E6FE91
:100928003146204600F0E2FE1849204600F0DEFE7F
:100938002946204600F0DAFE1549204600F0D6FE8A
:10094800204600F01BFB012501E00135EDB22C46E5
:100958006E1E0B4B9B5D4B2B11D000F021FB084BFF
:1009680018550028F9D0642D09D09B5D522BECD185
:100978005228EAD1034800F001FB0125E7E770BDE2
:10098800FC010020600200203C2100084C210008E6
:1009980050210008F8B507460E46154664212A4836
:1009A80000F0A2FB294C4621204600F09DFB284977
:1009B800204600F09BFE3946204600F097FE254968
:1009C800204600F093FE3146204600F08FFE224973
:1009D800204600F08BFE2946204600F087FE1F497E
:1009E800204600F083FE1E4800F05CFA204600F026
:1009F800C5FA01250BE045281AD1F8BD522819D1AE
:100A0800124800F0BBFA012501E00135EDB22C4691
:100A18006E1E0D4B9B5D4B2BEFD000F0C1FA0A4BBD
:100A280018550028F9D0642D0CD09B5D522BE2D0CC
:100A3800522BE3D04E2BE8D14E28E6D1642000F0AB
:100A480031FADAE70025E2E7FC0100206002002025
:100A5800542100084C21000864210008A021000846
:100A6800801A0600F8B505460F466421514800F083
:100A78003BFB514C4621204600F036FB4F492046AF
:100A880000F034FE2946204600F030FE4C4920464E
:100A980000F02CFE204600F071FA01250DE05228E6
:100AA8001CD1484A48494948FFF774FF424800F0BA
:100AB80065FA012501E00135ADB22C466E1E3D4BAD
:100AC8009B5D4B2B11D000F06BFA3A4B1855002860
:100AD800F9D0642D09D09B5D522BE0D04E2BEAD182
:100AE8004E28E8D1642000F0DDF9334C4621204639
:100AF80000F0FAFA3649204600F0F8FD394620465B
:100B080000F0F4FD2E49204600F0F0FD204600F0EC
:100B180035FA00273D461BE0264B1B5D522B32D190
:100B2800254800F02BFA012512E000F039FA294B8C
:100B380018551B5DDBB23A2BF7D129E0254B5B78C2
:100B4800DBB23A2B29D1012702E00025002F2CD156
:100B58002C466E1E1F4B9B5DDBB2532B28D000F03A
:100B68001FFA1C4B18551B5D002BF8D0194B1B5D49
:100B7800DBB20A2BF3D040F2DC539D4218D00D4B68
:100B88009B5D522BC8D0134B1B5DDBB22B2BCCD0FB
:100B9800104B1B78DBB23A2BD0D0002FD6D1012DC9
:100BA800D3D0002DD2D10125D0E70135ADB2CFE7A2
:100BB800F8BD00BFFC010020600200206821000889
:100BC800A021000874210008782100088821000865
:100BD8008C210008A802002070B56421184800F094
:100BE80083FA184800F0CAF9012509E0322825D00F
:100BF800342801D000201EE001201CE00135EDB2B0
:100C08002C466E1E0E4B9B5D4B2B13D000F0C8F983
:100C18000B4B18550028F9D0642D0DD09B5D3A2B4D
:100C2800E4D0522BEAD15228E8D1064800F0A6F9C0
:100C38000125E5E7002070BD0020FCE70120FAE768
:100C4800FC0100202C210008154BDB6813F0010F74
:100C5800FAD1134B1B6913F0800F05D0104B114AC2
:100C68005A6002F188325A600D4B1A6942F002024A
:100C78001A61800200F1006058611A6942F040026E
:100C88001A61074BDB6813F0010FFAD1044BDA68DD
:100C980042F02002DA601A6922F002021A617047F3
:100CA800002002402301674510B50A2404E02046CD
:100CB800FFF7CAFF0134E4B23F2CF8D910BD000099
:100CC80030B482B0184BDB6813F0010FFAD1164B21
:100CD8001B6913F0800F05D0134B144C5C6004F1B2
:100CE80088345C6000241AE00F4D2B6943F001033F
:100CF8002B6131F81430ADF8063020F8023B0A4B6E
:100D0800DB6813F0010FFAD1074BDD6845F02005C9
:100D1800DD601D6925F001051D610134E4B29442CE
:100D2800E2D302B030BC704700200240230167457F
:100D38000246A0F13003D8B2092802D9A2F137003F
:100D4800C0B270472DE9F84F06464078FFF7F0FF2C
:100D58000746B078FFF7ECFF40EA0717FFB2F078D4
:100D6800FFF7E6FF04463079FFF7E2FF05467079A2
:100D7800FFF7DEFF8046B079FFF7DAFF1F4A538896
:100D880040EA034040EA081848EA052848EA0438D7
:100D9800C2F80080002527E04FEA850B0BF1090314
:100DA800F05CFFF7C5FF81460BF10A03F05CFFF723
:100DB800BFFF82460BF10B03F05CFFF7B9FF044657
:100DC8000BF10C0B16F80B00FFF7B2FF240344EAF3
:100DD800002000B240EA0A0000B240EA0910084BBD
:100DE80023F815000135EDB27A08AA42D4D804498F
:100DF8004046FFF765FFBDE8F88F00BF20000020E0
:100E08001C01002008B5084A136943F00403136164
:100E1800064B1A6842F002021A605A6822F0010270
:100E28005A6000F071F808BD00ED00E00070004065
:100E3800064A812313600023536001E001339BB20B
:100E480042F20F729342F9D9704700BF0010024076
:100E58001F281ED81F291CD801280BD010B1022822
:100E680010D07047012303FA01F10A4A53690B4372
:100E780053617047012303FA01F1064AD3690B4312
:100E8800D3617047012303FA01F1024A93690B43C6
:100E98009361704700100240014B00221A607047AE
:100EA80010E000E0094B58601A6842F001021A602D
:100EB800064B1B6813F4803FFAD0044B1A6822F0E3
:100EC80001021A6000225A609A60704710E000E040
:100ED8000A4B1A6822F001021A6000225A609A60CE
:100EE8005860186840F0010018600548016005491D
:100EF8000A701A6842F002021A60704710E000E0B7
:100F0800E4010020E8010020064B1A6822F00202E2
:100F18001A601A6842F001021A6000225A609A6048
:100F2800704700BF10E000E008B50A4B1B785BB9BA
:100F3800094B1A6822F002021A601A6842F001028C
:100F48001A6000225A609A60044B1B689847024B4B
:100F58001B6808BDE801002010E000E0E401002063
:100F6800054A0023136045239360D36843F4005374
:100F780043F00C03D360704700380140002205E0BD
:100F8800064B1B6813F0400FFAD00132835C23B183
:100F98005C2BF5D001494B60F2E7704700380140FF
:100FA800054B1B6813F0200F03D0034B5868C0B2E1
:100FB80070470020704700BF0038014008B5044B57
:100FC800044A1A60044B1B68044A1360984708BD1A
:100FD80008ED00E00028000804280008EC010020C3
:100FE80030B593B00446002110918DF844100E914D
:100FF8008DF83C10322201A800F070FB0A2210A9DB
:10100800204600F069FB2F4A2F493048FFF7C2FC01
:1010180064B3392005E00130C0B22D4BA3FB043482
:10102800E408002CF7D10A220EA900F055FB294844
:10103800FFF7A4FF0EA8FFF7A1FF2748FFF79EFFC1
:1010480001252C466B1E12AA134413F8443C4B2B63
:101058000ED0FFF7A5FF12AB234403F8440C002879
:10106800F7D0322D04D00135EDB2EAE73A20DAE7BD
:101078001A48FFF783FF10A8FFF780FF1648FFF70D
:101088007DFF01252C466B1E12AA134413F8443C1D
:101098004C2B0CD0FFF784FF12AB234403F8440C0D
:1010A8000028F7D0322D02D00135EDB2EAE7054A23
:1010B80005490648FFF76EFC09490A48FFF7D2FCC4
:1010C80013B030BD74210008782100088821000879
:1010D800CDCCCCCC68210008A0210008242200082F
:1010E8005C2200089422000803E0002343540139DD
:1010F80089B20029F9D1002303707047074B1B7888
:10110800DBB2452B01D000207047044B5B78DBB283
:10111800462B01D00020704701207047840800202A
:10112800074B1B78DBB2452B01D000207047044BDE
:101138005B78DBB2502B01D000207047012070474C
:101148008408002010B582B00023ADF80630ADF851
:10115800043001228DF803208DF802308DF801301B
:10116800364B1B78DBB2452B63D0344B5B78DBB254
:101178004F2B5ED0314B9B78DBB2502B23D158E0FC
:101188009DF80330DBB22D4CE05CFFF7D1FD8DF804
:1011980002009DF803300133E05CFFF7C9FD8DF8CC
:1011A80001009DF802209DF8013043EA0213BDF8C2
:1011B800062013449BB2ADF806309DF80330023385
:1011C800DBB28DF803309DF8033002331B4AD35C41
:1011D800DBB20D2BD4D1BDF806305B42DBB2ADF8E3
:1011E80006309DF80330DBB21446D05CFFF7A0FD53
:1011F8008DF802009DF803300133E05CFFF798FD9D
:101208008DF801009DF802209DF8013043EA021391
:10121800DBB2ADF8043000238DF80330BDF80620AA
:1012280092B2BDF804309BB29A4202D001238DF8E5
:1012380003309DF8030002B010BD00BF84080020F1
:10124800002303E0425C1344013989B20029F9D133
:10125800007818447047000070B5ADF50C7D002487
:101268008A948DF82C424FF4FA7221460DA800F0AA
:1012780035FA32222146684600F030FA234A2449DA
:101288002448FFF787FB0A228AA9392000F024FAAC
:101298002148FFF773FE8AA8FFF770FE1F48FFF783
:1012A8006DFE01252C466B1E1DF803304B2B0AD012
:1012B800FFF776FE0DF804000028F9D0322D02D091
:1012C8000135EDB2EEE71648FFF758FE1348FFF771
:1012D80055FE4FF47A70FFF7E5FD012501E0013571
:1012E800EDB22C466E1E0DAB9B5D4C2B09D0FFF763
:1012F80057FE0DAB18550028F9D09B5D3A2BEED15F
:1013080000E000200DF50C7D70BD00BF74210008C1
:10131800782100088821000868210008A021000819
:10132800EC21000870B590B0064601F138000024A1
:101338000E948DF83C400A220EA9C0B200F0CCF9F8
:101348003222214601A800F0C9F9224A224923483D
:10135800FFF720FB2248FFF711FE0EA8FFF70EFE4D
:101368002048FFF70BFE01252C466B1E10AA1344DC
:1013780013F83C3C4B2B0CD0FFF712FE10AB234468
:1013880003F83C0C0028F7D0322D02D00135EDB21D
:10139800EAE71548FFF7F2FD3046FFF7EFFD114881
:1013A800FFF7ECFD01252C466B1E10AA134413F819
:1013B8003C3C4C2B0CD0FFF7F3FD10AB234403F857
:1013C8003C0C0028F7D0322D02D00135EDB2EAE707
:1013D80010B070BD74210008782100088821000829
:1013E80068210008A0210008B4210008092807D9AD
:1013F800A0F10A03DBB2052B01D83730C0B2704721
:101408003030C0B270470246A0F13003D8B2092884
:1014180009D9A2F14103DBB2052B03D8A2F13700A9
:10142800C0B270471046704770B50024224608E0E5
:101438000134A4B22A4B1B5DDBB20D2BF8D101326B
:10144800D2B2824202D20134A4B2F3E70CB1013421
:10145800A4B200251DE0224B9B5DDBB2214A535507
:101468001F4B9B5DDBB21F4A535570BD1C4B9B5DE8
:10147800DBB21C4A53551C491E20FFF729FDEFE734
:10148800174B9B5DDBB2174A53550135EDB201345A
:10149800A4B22646124B1B5DDBB20D2BE0D0104BDD
:1014A8001B5DDBB2502BD6D00D4B9B5DDBB2652BA1
:1014B800DCD00B4B9B5DDBB23A2BE1D0084B9B5D3C
:1014C800DBB20D2BDCD0064B985DFFF79CFF80F05C
:1014D8000900C0B2FFF78AFF024B5855D5E700BF95
:1014E800A802002084080020C50F000810B540F2AB
:1014F800DC515948FFF7F8FD32215848FFF7F4FD51
:10150800FFF796FC0E210220FFF7A2FC02210846F5
:10151800FFF79EFC04210020FFF79AFC0B2209210B
:101528000020FFF70FF904220A210020FFF70AF92B
:10153800FFF716FDFFF770F9FFF74EFB18B948499A
:101548004848FFF7DDF90B214748FFF7EBFEFFF7A7
:10155800A3FCFFF781FE31281ED0444B1A88444B68
:101568001B889BB29A421ED10B214248FFF7DAFE34
:10157800FFF724FD40F2DC513748FFF7B5FD3E4C3C
:101588002078FFF72DFD11213C48FFF7CBFE23788B
:101598000133DBB2237029E0FFF786FB15213848B9
:1015A800FFF7C0FEE6E711213648FFF7BBFE14211E
:1015B8003548FFF7B7FEFFF725FCFEE7162133484D
:1015C800FFF7B0FE14213248FFF7ACFE012228498C
:1015D8002648FFF775FBFFF7F1FC10BD1F48FFF722
:1015E800B1FB2C4A13780133DBB2137032211B484C
:1015F800FFF77AFD274B1878FFF716FFFFF790FDE6
:10160800A0B9FFF77BFD0028D8D132211348FFF796
:1016180017FE0028E2D0FFF795FD0028DED019213B
:101628001D48FFF77FFEFFF7EDFBFEE740F2DC51B8
:101638000948FFF759FD32210848FFF755FD0E4CC0
:101648002078FFF7CDFC23780133DBB22370114BF0
:1016580000221A70CAE700BFA802002084080020F0
:1016680098220008A4220008B0220008EED2000840
:1016780024000020D4220008EA0100200C230008DE
:10168800BC220008E0220008F422000820230008F9
:1016980038230008E901002050230008014B18688E
:1016A800704700BF28000020931E222B10B50C465F
:1016B80004D900231C460B70204610BD0A2A09D104
:1016C800002807DA2D230B7001214042214400F045
:1016D8001DF8F1E70021F9E7FFF7E6BF03460244EA
:1016E800934200D1704703F8011BF9E7034610B590
:1016F8001A785C1C3AB9013B11F8012B03F8012F49
:10170800002AF9D110BD2346F2E70000F0B58BB0EE
:1017180005460C466E461B4B03F1200C37461868ED
:101728005968083303C763453E46F7D118681B79E3
:1017380038603B71931E222B4FF0000304D92370AD
:101748001C4620460BB0F0BD661EB5FBF2F002FB4E
:1017580010550AAF3D4415F8285C591C06F8015F7E
:10176800054668B9224660542344191B101B814260
:10177800E7DD1178187802F8010B03F80119F4E78E
:101788000B46E2E76C23000830B5141E05469BB0F3
:10179800184605DA8B234FF0FF302B601BB030BDA5
:1017A8004FF40273ADF80C300CBF234604F1FF333D
:1017B800029305934FF6FF7300910491ADF80E3034
:1017C80002461E9B6946284600F072F8431CBCBFBF
:1017D8008B232B60002CE1D00022009B1A70DDE7E0
:1017E80007B5009313460A46014603480068FFF709
:1017F800CBFF03B05DF804FB280000202DE9F0477B
:101808008E6882469E420C469046994637D88A8909
:1018180012F4906F31D00223256809696F1A65693F
:1018280005EB450595FBF3F509F101033B449D42A2
:1018380038BF1D46530530D5294600F035FB06460E
:1018480050B90C234FF0FF30CAF80030A38943F099
:101858004003A381BDE8F0873A46216900F0B4FA55
:10186800A38923F4906343F08003A38126613E4457
:1018780026604E466561ED1BA5604E4500D94E4673
:1018880032464146206800F0AAFAA36800209B1B54
:10189800A36023681E442660DCE72A4600F05EFB4E
:1018A80006460028E2D12169504600F0B1FAC8E79F
:1018B8002DE9F04F9DB003938B8980461D060C4699
:1018C80016460FD50B696BB9402100F0EDFA206080
:1018D800206128B90C23C8F800304FF0FF30C7E06A
:1018E800402363610023099320238DF82930302396
:1018F8004FF0010B8DF82A3037463D4615F8013B6D
:101908000BB1252B3ED1B7EB060A0BD05346324616
:1019180021464046FFF772FF013000F0A480099B82
:10192800534409933B78002B00F09D8000234FF02F
:10193800FF32CDE90523049307938DF853301A93AA
:101948002F46052217F8011B4F4800F02FFA049B79
:10195800D0B9D90644BF20228DF853201A0744BFB6
:101968002B228DF853202A782A2A15D02F460020BA
:101978000A25079A394611F8013B303B092B4DD906
:10198800B8B10FE02F46B8E73F4A3D46801A0BFA38
:1019980000F018430490D3E7039A111D12680391CD
:1019A800002A01DB079204E0524243F00203079247
:1019B80004933B782E2B0CD17B782A2B33D1039BB5
:1019C80002371A1D1B680392002BB8BF4FF0FF3374
:1019D80005932E4D03223978284600F0E7F938B1EF
:1019E8004023401B03FA00F0049B01370343049390
:1019F8003978062226487E1C8DF8281000F0D6F982
:101A0800002838D0234B13BB039B073323F007036D
:101A180008330393099B4B4409936DE705FB023296
:101A280001200F46A6E700230A251946013705932A
:101A3800384610F8012B303A092A03D9002BC8D0B0
:101A48000591C6E705FB012101230746F0E703AB33
:101A580000932246104B04A94046AFF30080B0F132
:101A6800FF3F8146D6D1A3895B063FF536AF09987B
:101A78001DB0BDE8F08F03AB00932246064B04A9C6
:101A8800404600F081F8EAE7912300089723000810
:101A98009B23000800000000051800082DE9F04706
:101AA80091461F468A680B6906469342B8BF13469B
:101AB800C9F8003091F843200C46DDF8208012B1B7
:101AC8000133C9F800302368990642BFD9F80030BD
:101AD8000233C9F80030256815F0060507D104F16E
:101AE800190AE368D9F800209B1AAB4229DC94F85C
:101AF80043302268003318BF012392062ED404F124
:101B0800430239463046C047013021D02368E56892
:101B180003F00603042B18BF0025D9F800204FF066
:101B2800000908BFAD1AA368226908BF25EAE57550
:101B38009342C4BF9B1AED181A344D451AD10020A0
:101B480008E00123524639463046C047013003D1E8
:101B58004FF0FF30BDE8F0870135C2E73020E118CB
:101B680081F843005A1C94F845102244023382F845
:101B78004310C4E70123224639463046C0470130A6
:101B8800E6D009F10109D8E72DE9F04301F1430C4A
:101B98000C46097E85B06E291746064698460C9A6B
:101BA80000F0B38022D8632936D00AD8002900F083
:101BB800B980582900F0838004F1420584F8421066
:101BC80032E0642901D06929F6D120681368050636
:101BD80003F104012AD51B681160002B03DA2D22BA
:101BE8005B4284F843206F480A2239E0732900F0E9
:101BF8009D8008D86F2920D07029DDD1236843F053
:101C08002003236003E0752917D07829D4D17823DD
:101C1800654884F8453055E0136804F14205191DFC
:101C28001B68116084F8423001238CE01B6810F0B7
:101C3800400F116018BF1BB2CFE713682568181D45
:101C48001060280601D51B6802E06806FBD51B88D2
:101C58006F2914BF0A2208225248002184F8431031
:101C68006568002DA560C0F29580216821F0040107
:101C78002160002B3DD1002D40F08E806546082A5A
:101C88000BD12368DB0708D5236962689A42DEBF57
:101C9800302305F8013C05F1FF35ACEB0503236162
:101CA800CDF800803B4603AA21463046FFF7F6FEF2
:101CB80001304DD14FF0FF3005B0BDE8F083394811
:101CC80084F84510136821681D1D1B6815600A06F5
:101CD8000BD5CA0744BF41F0200121601BB9226817
:101CE80022F0200222601022B7E74D0648BF9BB2BF
:101CF800EFE76546B3FBF2F102FB1133C35C05F86D
:101D0800013D0B460029F5D1B9E713682568181D70
:101D18006169106028061B6801D5196002E06A062F
:101D2800FBD51980002365462361B9E71368191D9F
:101D380011601D6862680021284600F037F808B174
:101D4800401B606063682361002384F84330A7E781
:101D580023692A4639463046C0470130AAD023684D
:101D68009B0713D4E068039B9842B8BF1846A3E7C3
:101D780001234A4639463046C04701309AD00135DA
:101D8800E368039A9B1AAB42F2DCEBE7002504F107
:101D98001909F5E7002BACD1037804F1420584F862
:101DA80042306CE7A2230008B323000810B5C9B27B
:101DB80002449042034601D1002303E01C7801301D
:101DC8008C42F6D1184610BD10B5431E0A44914204
:101DD80000D110BD11F8014B03F8014FF7E7884215
:101DE80010B501EB020307D8421E99420AD011F838
:101DF800014B02F8014FF8E78342F5D98118D21A4E
:101E0800D34200D110BD13F8014D01F8014DF7E799
:101E180038B50546002943D051F8043C0C1F002B67
:101E2800B8BFE41800F0D0F81E4A1368104633B95A
:101E3800636014602846BDE8384000F0C6B8A34285
:101E48000BD921686218934201BF1A685B6852185F
:101E5800226063600460EDE713465A680AB1A24243
:101E6800FAD919685818A0420BD1206801445818AB
:101E780082421960DED110685268014419605A60C4
:101E8800D8E702D90C232B60D4E7206821188A42AE
:101E980001BF116852680918216062605C60C9E777
:101EA80038BD00BFF001002070B5CD1C25F003053A
:101EB80008350C2D38BF0C25002D064601DBA9423C
:101EC80003D90C233360002070BD00F07DF8214A4F
:101ED8001468214691B9204C23681BB9304600F09C
:101EE80063F820602946304600F05EF8431C24D190
:101EF8000C233046336000F068F8E4E70B685B1B9E
:101F080018D40B2B0FD90B60CC18CD50304600F0ED
:101F18005CF804F10B00231D20F00700C31AD3D08E
:101F28005A42E250D0E74B688C4216BF6360136098
:101F38000C46EBE70C464968CCE7C41C24F00304C4
:101F4800A04205D0211A304600F02EF80130CFD03B
:101F58002560DBE7F0010020F4010020F8B5074612
:101F680014460E4621B9BDE8F8401146FFF79CBF5C
:101F780022B9FFF74DFF25462846F8BD00F026F8A0
:101F8800A0420FD221463846FFF78EFF05460028AB
:101F9800F2D031462246FFF717FF31463846FFF7A1
:101FA80037FFE9E73546E7E738B50023054C05462E
:101FB80008462360FEF7DEF9431C02D1236803B10B
:101FC8002B6038BDF80100207047704751F8043C79
:101FD800181F002BBCBF0B58C0187047537461639F
:101FE8006B206672616D653A0A000000205230204D
:101FF8003D2020253038580A0000000020523120AA
:102008003D2020253038580A000000002052322098
:102018003D2020253038580A000000002052332087
:102028003D2020253038580A000000002052313267
:10203800203D20253038580A00000000204C52204E
:102048003D2020253038580A000000002050432049
:102058003D2020253038580A0000000020505352F7
:10206800203D20253038580A000000004653522FE2
:102078004641523A0A0000002043465352203D2070
:1020880020253038580A00002048465352203D2069
:1020980020253038580A00002044465352203D205D
:1020A80020253038580A00002041465352203D2050
:1020B80020253038580A0000204D4D464152203D19
:1020C80020253038580A00002042464152203D2041
:1020D80020253038580A00004D6973630A00000053
:1020E800204C522F4558435F52455455524E3D207F
:1020F800253038580A0000005B48617264466175F3
:102108006C745D0A000000005B4275734661756C73
:10211800745D0A005B55736167654661756C745D33
:102128000A00000041542B4349505354415455531D
:102138000D0A000041542B43574A41505F43555202
:102148003D220000222C2200220D0A0041542B437C
:10215800495053544152543D22000000222C0000A3
:1021680041542B43495053454E443D0038300000FC
:102178003136322E3235332E3135352E3232360065
:1021880054435000474554200000000041540D0AB4
:1021980000000000415445300D0A000041542B4313
:1021A800574D4F44453D310D0A0000004745542026
:1021B800687474703A2F2F666F74612D6F746F2E68
:1021C800667265657661722E636F6D2F53656E64F6
:1021D8005374617475732E7068703F5374617475AD
:1021E800733D000047455420687474703A2F2F6679
:1021F8006F74612D6F746F2E667265657661722ECD
:10220800636F6D2F75706C6F6164732F5374617495
:1022180075735F46696C652E747874004745542061
:10222800687474703A2F2F666F74612D6F746F2EF7
:10223800667265657661722E636F6D2F5061676592
:10224800526571756573742E7068703F506167656B
:102258004E6F3D00687474703A2F2F666F74612D4D
:102268006F746F2E667265657661722E636F6D2F5F
:1022780075706C6F6164732F5265717565737465E1
:1022880064506167652E7478740000003539000069
:10229800616E612020616E6100000000412E432EB6
:1022A800462E462E34000000496E697425323044AB
:1022B8006F6E6500466C61736825323045726173D4
:1022C8006564253230446F6E6500000041707025EA
:1022D8003230466F756E64004170702532304E6F33
:1022E80074253230466F756E64000000456E746563
:1022F80072253230536C6565702532304D6F6465D8
:10230800000000005061676525323050726F6365C8
:102318007373696E67000000417070253230427532
:10232800726E696E67253230446F6E652121000038
:1023380052756E6E696E67253230596F7572253227
:1023480030417070000000004461746125323045EE
:1023580052524F5225323044657465637465642166
:102368002100000030313233343536373839616274
:10237800636465666768696A6B6C6D6E6F707172AD
:10238800737475767778797A00232D302B2000685E
:102398006C4C00656667454647003031323334354A
:1023A80036373839414243444546003031323334B8
:0C23B800353637383961626364656600B1
:1023C400785634129800002000000000000000003D
:1023D40000000000010203040607080900A24A04E1
:1023E40000280008F1F0FFFF2C000020000000008E
:1023F40000000000000000000000000000000000D9
:1024040000000000000000000000000000000000C8
:1024140000000000000000000000000000000000B8
:1024240000000000000000000000000000000000A8
:102434000000000000000000000000000000000098
:1024440000000000000000000000000032547698F4
:040000050800010DE1
:00000001FF
